{
  "contractName": "device",
  "abi": [
    {
      "constant": true,
      "inputs": [
        {
          "internalType": "address",
          "name": "",
          "type": "address"
        }
      ],
      "name": "devices",
      "outputs": [
        {
          "internalType": "bool",
          "name": "",
          "type": "bool"
        }
      ],
      "payable": false,
      "stateMutability": "view",
      "type": "function"
    },
    {
      "constant": false,
      "inputs": [
        {
          "internalType": "bytes32",
          "name": "mOwner",
          "type": "bytes32"
        }
      ],
      "name": "addDevice",
      "outputs": [],
      "payable": false,
      "stateMutability": "nonpayable",
      "type": "function"
    },
    {
      "constant": true,
      "inputs": [],
      "name": "viewDevices",
      "outputs": [
        {
          "internalType": "address[]",
          "name": "",
          "type": "address[]"
        },
        {
          "internalType": "bytes32[]",
          "name": "",
          "type": "bytes32[]"
        }
      ],
      "payable": false,
      "stateMutability": "view",
      "type": "function"
    },
    {
      "constant": false,
      "inputs": [
        {
          "internalType": "bytes32",
          "name": "hum",
          "type": "bytes32"
        },
        {
          "internalType": "bytes32",
          "name": "temp",
          "type": "bytes32"
        }
      ],
      "name": "storeFeed",
      "outputs": [],
      "payable": false,
      "stateMutability": "nonpayable",
      "type": "function"
    },
    {
      "constant": false,
      "inputs": [],
      "name": "viewFeed",
      "outputs": [
        {
          "internalType": "bytes32[]",
          "name": "",
          "type": "bytes32[]"
        },
        {
          "internalType": "bytes32[]",
          "name": "",
          "type": "bytes32[]"
        }
      ],
      "payable": false,
      "stateMutability": "nonpayable",
      "type": "function"
    }
  ],
  "bytecode": "0x608060405234801561001057600080fd5b5061087e806100206000396000f3fe608060405234801561001057600080fd5b50600436106100575760003560e01c80630d314a691461005c5780632a81972814610103578063e159830f14610131578063e7b4cac614610169578063e8d2a16a146101c5575b600080fd5b61006461026c565b604051808060200180602001838103835285818151815260200191508051906020019060200280838360005b838110156100ab578082015181840152602081019050610090565b50505050905001838103825284818151815260200191508051906020019060200280838360005b838110156100ed5780820151818401526020810190506100d2565b5050505090500194505050505060405180910390f35b61012f6004803603602081101561011957600080fd5b8101908080359060200190929190505050610355565b005b6101676004803603604081101561014757600080fd5b810190808035906020019092919080359060200190929190505050610499565b005b6101ab6004803603602081101561017f57600080fd5b81019080803573ffffffffffffffffffffffffffffffffffffffff1690602001909291905050506105bb565b604051808215151515815260200191505060405180910390f35b6101cd6105db565b604051808060200180602001838103835285818151815260200191508051906020019060200280838360005b838110156102145780820151818401526020810190506101f9565b50505050905001838103825284818151815260200191508051906020019060200280838360005b8381101561025657808201518184015260208101905061023b565b5050505090500194505050505060405180910390f35b60608060006001818054806020026020016040519081016040528092919081815260200182805480156102f457602002820191906000526020600020905b8160009054906101000a900473ffffffffffffffffffffffffffffffffffffffff1673ffffffffffffffffffffffffffffffffffffffff16815260200190600101908083116102aa575b505050505091508080548060200260200160405190810160405280929190818152602001828054801561034657602002820191906000526020600020905b815481526020019060010190808311610332575b50505050509050915091509091565b600560003373ffffffffffffffffffffffffffffffffffffffff1673ffffffffffffffffffffffffffffffffffffffff16815260200190815260200160002060009054906101000a900460ff16156103ac57600080fd5b6001600560003373ffffffffffffffffffffffffffffffffffffffff1673ffffffffffffffffffffffffffffffffffffffff16815260200190815260200160002060006101000a81548160ff02191690831515021790555060003390806001815401808255809150509060018203906000526020600020016000909192909190916101000a81548173ffffffffffffffffffffffffffffffffffffffff021916908373ffffffffffffffffffffffffffffffffffffffff16021790555050600181908060018154018082558091505090600182039060005260206000200160009091929091909150555050565b600560003373ffffffffffffffffffffffffffffffffffffffff1673ffffffffffffffffffffffffffffffffffffffff16815260200190815260200160002060009054906101000a900460ff166104ef57600080fd5b6104f761080c565b60405180606001604052808481526020018381526020013373ffffffffffffffffffffffffffffffffffffffff16815250905060048190806001815401808255809150509060018203906000526020600020906003020160009091929091909150600082015181600001556020820151816001015560408201518160020160006101000a81548173ffffffffffffffffffffffffffffffffffffffff021916908373ffffffffffffffffffffffffffffffffffffffff160217905550505050505050565b60056020528060005260406000206000915054906101000a900460ff1681565b606080600560003373ffffffffffffffffffffffffffffffffffffffff1673ffffffffffffffffffffffffffffffffffffffff16815260200190815260200160002060009054906101000a900460ff1661063457600080fd5b60008090505b60048054905081101561075b573373ffffffffffffffffffffffffffffffffffffffff166004828154811061066b57fe5b906000526020600020906003020160020160009054906101000a900473ffffffffffffffffffffffffffffffffffffffff1673ffffffffffffffffffffffffffffffffffffffff16141561074e576002600482815481106106c857fe5b906000526020600020906003020160000154908060018154018082558091505090600182039060005260206000200160009091929091909150555060036004828154811061071257fe5b90600052602060002090600302016001015490806001815401808255809150509060018203906000526020600020016000909192909190915055505b808060010191505061063a565b5060026003818054806020026020016040519081016040528092919081815260200182805480156107ab57602002820191906000526020600020905b815481526020019060010190808311610797575b50505050509150808054806020026020016040519081016040528092919081815260200182805480156107fd57602002820191906000526020600020905b8154815260200190600101908083116107e9575b50505050509050915091509091565b60405180606001604052806000801916815260200160008019168152602001600073ffffffffffffffffffffffffffffffffffffffff168152509056fea265627a7a723158200ac8934ffab848fd2dd61d9258f13c17c10d60d609ef4c18fea72037108f489d64736f6c63430005100032",
  "source": "// SPDX-License-Identifier: MIT\npragma solidity >=0.4.22 <0.9.0;\n\ncontract device {\n    address[] deviceAddr;\n    bytes32[] mobileOwner;\n    bytes32[] h;\n    bytes32[] t;\n\n    struct iotFeed {\n        bytes32 hum;\n        bytes32 temp;\n        address userId;\n    }\n\n    iotFeed[] sensorFeed;\n\n    mapping(address => bool) public devices;\n\n    function addDevice(bytes32 mOwner) public {\n        require(!devices[msg.sender]);\n        devices[msg.sender]=true;\n        deviceAddr.push(msg.sender);\n        mobileOwner.push(mOwner);\n    }\n    \n    function viewDevices() public view returns (address[] memory, bytes32[] memory) {\n        return(deviceAddr,mobileOwner);\n    }\n\n    function storeFeed(bytes32 hum, bytes32 temp) public {\n        require(devices[msg.sender]);\n        iotFeed memory new_feed= iotFeed(hum,temp,msg.sender);\n        sensorFeed.push(new_feed);\n    }\n    \n    function viewFeed() public returns (bytes32[] memory,bytes32[] memory) {\n        require(devices[msg.sender]);\n        \n        for(uint i=0;i<sensorFeed.length;i++) {\n            if(sensorFeed[i].userId==msg.sender) {\n                h.push(sensorFeed[i].hum);\n                t.push(sensorFeed[i].temp);\n            }\n        }\n        return (h,t);\n    }\n}\n",
  "sourcePath": "/Users/maddysravs/storing-sensory-feed/contracts/device.sol",
  "compiler": {
    "name": "solc",
    "version": "0.5.16+commit.9c3226ce.Emscripten.clang"
  },
  "schemaVersion": "3.4.7",
  "updatedAt": "2022-06-14T14:56:57.289Z",
  "networkType": "ethereum",
  "devdoc": {
    "methods": {}
  },
  "userdoc": {
    "methods": {}
  }
}